:1000000045C0000061C000005EC000005CC0000090
:100010005AC0000058C0000056C0000054C0000084
:1000200052C0000050C000004EC000004CC0000094
:100030004AC0000048C0000046C0000044C00000A4
:1000400042C0000040C000003EC000003CC00000B4
:100050003AC0000038C0000036C0000034C00000C4
:1000600032C0000030C000002EC000002CC00000D4
:100070002AC0000028C0000026C0000024C00000E4
:1000800022C0000020C000001EC0000011241FBEBE
:10009000CFEFD0E1DEBFCDBF13E0A0E0B1E0ECE9EF
:1000A000F9E000E00BBF02C007900D92A630B10747
:1000B000D9F727E0A6E0B3E001C01D92A331B20753
:1000C000E1F79FD069C49CCF1F920F920FB60F9299
:1000D00011248F9380910D03809580930D038F9150
:1000E0000F900FBE0F901F90189582E080936A00CA
:1000F00081E089BF11BA08951BBA8FEF8ABB88BB14
:1001000087BB15BA90EF94BB90E892BB91BB13B834
:1001100082B910926200109261000895F894ECDFA9
:100120008CD00ED1789408954BED52E060E080E0E1
:1001300053D140EF52E060E081E04ED14BED52E010
:1001400060E082E049C10895EF92FF920F931F9300
:10015000CF93D0D1E3D083E090E076D06EE070E032
:1001600008D4709309036093080384E090E06CD096
:1001700099230CF40796BC0175956795759567955D
:1001800075956795609306037093070345E080912A
:100190000803C2D1C0E00F2EF6E0EF2EF3E0FF2EF1
:1001A000F02D08E013E0F70160816C0FF801808109
:1001B0003FD1F8018081F70160818C0F39D1F701BF
:1001C00060816C1BF801808133D1F8018081F701D7
:1001D00060818C1B2DD1CF5FC73029F7CF911F9144
:1001E0000F91FF90EF90089548E068E088E094D187
:1001F00048E061E08AE090D148E068E084E08CC1AA
:1002000008958CDF91DF71DF8FEF87BB8FE088BBB4
:1002100010920D0385E090E090930903809308030A
:10022000909307038093060380910D03882319F0B0
:100230008BDFDADFF9CF78DFF7CF16B817B880E8B1
:1002400088B983EC86B9089593EC96B9806487B930
:10025000369A349BFECF24B185B116B890E0982F22
:100260008827820F911D08951D9A91E39A95F1F7C1
:1002700000001C981E981F9A8BBB81E38A95F1F7AA
:1002800000001D9808951D9A91E39A95F1F70000DA
:100290001C981E9A1F988BBB81E38A95F1F700008A
:1002A0001D9808951D9A91E39A95F1F700001C9806
:1002B0001E9A1F9A8BBB81E38A95F1F700001D9867
:1002C00008951D9A91E39A95F1F700001C9A1E98E3
:1002D0001F9A8BBB81E38A95F1F700001D98089562
:1002E0001D9A91E39A95F1F700001C9A1E9A1F98A7
:1002F0008BBB81E38A95F1F700001D9808951D9A44
:1003000091E39A95F1F700001C9A1E9A1F9A8BBBF5
:1003100081E38A95F1F700001D980895CF93DF934C
:10032000D8EB8D2FBFDF80E4BDDFC0E480E0E7DFE6
:10033000C150E1F7DF5FD03CA1F7DF91CF91089585
:100340008FE3B0DF80ECAEDF88EBACDF80E4AACFD8
:10035000089580930F03609312078854A3DF809160
:1003600012078A3038F4982F990F890F880F8C5B09
:100370007BCF089590E00A97982F990F890F880FE7
:10038000805C81CF08951F93CF93DF9390E0EC01C1
:10039000CC0FDD1FCC0FDD1F8C0F9D1FEC01C05A51
:1003A000DF4F15E0809112078A3018F4888189DFC9
:1003B00002C0888195DF115021961111F3CF8091F1
:1003C00012078A3018F480E07CDF02C080E088DF0A
:1003D000DF91CF911F910895CF93DF93EA0180932E
:1003E0000F0360931207B5DF8881882381F0809125
:1003F00012078A3011F480E446DF8991C4DF8091CE
:1004000012078F5F8093120788818111F0CFDF91EF
:10041000CF910895CF93C62F885444DFC03420F481
:1004200080E48C0F21DF02C08C2F2DDFCF91089547
:10043000EF92FF920F931F93CF93803408F054C034
:1004400066230CF451C0282F269526952695982FC3
:10045000977071F0913071F0923071F0933071F0CB
:10046000943071F0953071F0963071F090E80DC0D5
:1004700091E00BC092E009C094E007C098E005C08D
:1004800090E103C090E201C090E4C62F022F10E07B
:10049000E62EF12CF801F695FE2FEE27F795E7955D
:1004A000EE5EFC4FEE0DFF1D8081982B9083822F16
:1004B000B1DFC03468F41695102F00271795079503
:1004C0000E5E1C4FF801EE0DFF1D8081FADE0CC0A0
:1004D0001695102F0027179507950E5E1C4FF801F3
:1004E000EE0DFF1D8081FCDECF911F910F91FF90DB
:1004F000EF900895E2E1F3E022E137E008C01192C5
:10050000E817F907E1F7FC018217930721F0CF0103
:1005100080589F4FF4CF08952F923F924F925F9251
:100520006F927F928F929F92AF92BF92CF92DF9203
:10053000EF92FF920F931F93CF93DF93382E262EC7
:10054000062F10E0642E712C2301440C551C460C20
:10055000571C5594479455944794E801C419D509FC
:10056000040D151D0C171D077CF1669C6001679C2E
:10057000D00CD00C1124E62EF12CCE018E199F093F
:10058000889F9001899F300D300D11244601821AF9
:10059000930A092C000CAA08BB08C501B401F2D0CB
:1005A00081D120E030E040E05FE35AD0BDD0B62EEC
:1005B0006C2F832D8B0D3CDF6C2F832D8B1938DF37
:1005C00021960C171D07CCF6832D90E0EC01C41981
:1005D000D509480E591E4C165D0674F1669C8001C3
:1005E000679C100D100D11247C01CE018E199F09FE
:1005F000889F9001899F300D300D11244801821A87
:10060000930A092C000CAA08BB08C501B401BAD092
:1006100049D120E030E040E05FE322D085D0D62E03
:10062000622D6D0D8C2F04DF622D6D198C2F00DF74
:1006300021964C165D06CCF6DF91CF911F910F915C
:10064000FF90EF90DF90CF90BF90AF909F908F90F2
:100650007F906F905F904F903F902F9008955058EB
:10066000BB27AA270ED0E0C0D1D030F0D6D020F0E2
:1006700031F49F3F11F41EF4C6C00EF4E095E7FB81
:10068000BCC0E92FE2D080F3BA1762077307840772
:10069000950718F071F49EF5FAC00EF4E0950B2E54
:1006A000BA2FA02D0B01B90190010C01CA01A001C4
:1006B0001124FF27591B99F0593F50F4503E68F11F
:1006C0001A16F040A22F232F342F4427585FF3CF60
:1006D000469537952795A795F0405395C9F77EF431
:1006E0001F16BA0B620B730B840BBAF09150A1F07A
:1006F000FF0FBB1F661F771F881FC2F70EC0BA0F00
:10070000621F731F841F48F4879577956795B79587
:10071000F7959E3F08F0B3CF9395880F08F099277F
:10072000EE0F97958795089598D088F09F5790F091
:10073000B92F9927B751A0F0D1F0660F771F881F06
:10074000991F1AF0BA95C9F712C0B13081F09FD045
:10075000B1E008959CC0672F782F8827B85F39F0E3
:10076000B93FCCF3869577956795B395D9F73EF465
:1007700090958095709561957F4F8F4F9F4F08950D
:10078000E89409C097FB3EF490958095709561952B
:100790007F4F8F4F9F4F9923A9F0F92F96E9BB27E1
:1007A0009395F695879577956795B795F111F8CF5D
:1007B000FAF4BB0F11F460FF1BC06F5F7F4F8F4FC8
:1007C0009F4F16C0882311F096E911C0772321F0BE
:1007D0009EE8872F762F05C0662371F096E8862F56
:1007E00070E060E02AF09A95660F771F881FDAF7AD
:1007F000880F9695879597F9089597F99F6780E8F0
:1008000070E060E008959FEF80EC089500240A9462
:100810001616170618060906089500240A941216DB
:100820001306140605060895092E0394000C11F40E
:10083000882352F0BB0F40F4BF2B11F460FF04C0BB
:100840006F5F7F4F8F4F9F4F089557FD9058440F14
:10085000551F59F05F3F71F04795880F97FB991F1F
:1008600061F09F3F79F087950895121613061406DC
:10087000551FF2CF4695F1DF08C016161706180669
:10088000991FF1CF86957105610508940895E89444
:10089000BB2766277727CB0197F9089511F40EF44B
:1008A000B2CF3EC0DADFD0F39923D9F3CEF39F570E
:1008B000550B87FF43D00024A0E640EA9001805802
:1008C0005695979528F4805C660F771F881F20F057
:1008D00026173707480730F4621B730B840B202957
:1008E00031294A2BA69517940794202531254A27AC
:1008F00058F7660F771F881F20F02617370748071D
:1009000030F4620B730B840B200D311D411DA0953B
:1009100081F7B901842F9158880F9695879508958E
:100920009F3F31F0915020F4879577956795B79563
:10093000880F911D9695879597F90895915050408D
:10094000660F771F881FD2F70895AA1BBB1B51E1C2
:1009500007C0AA1FBB1FA617B70710F0A61BB70B2F
:10096000881F991F5A95A9F780959095BC01CD01D4
:10097000089597FB072E16F4009406D077FD08D053
:10098000E4DF07FC05D03EF4909581959F4F0895D4
:0C099000709561957F4F0895F894FFCF9B
:10099C00000000000000004F0000000700070014DA
:1009AC007F147F14242A7F2A122313086462364989
:1009BC005522500005030000001C2241000041227A
:1009CC001C0014083E081408083E080800503000AB
:1009DC0000080808080800606000002010080402E5
:1009EC003E5149453E00427F4000426151494621FB
:1009FC0041454B311814127F1027454545393C4A67
:100A0C0049493001710905033649494936064949B6
:100A1C00291E00363600000056360000081422410C
:100A2C000014141414140041221408020151090674
:100A3C00324979413E7E1111117E7F494949363E3A
:100A4C00414141227F4141221C7F494949417F0953
:100A5C000909013E4149497A7F0808087F00417F16
:100A6C0041002040413F017F081422417F4040401B
:100A7C00407F020C027F7F0408107F3E4141413EC3
:100A8C007F090909063E4151215E7F091929462635
:100A9C004949493201017F01013F4040403F1F203D
:100AAC0040201F3F4038403F631408146307087010
:100ABC0008076151494543007F4141000204081079
:100ACC00200041417F0004020102044040404040AC
:100ADC00000102040020545454787F4844443838B0
:100AEC0044444420384444487F3854545418087EB5
:100AFC000901020C5252523E7F0804047800047D16
:100B0C0000002040443D007F1028440000417F40FD
:100B1C00007C0418047C7C08040478384444443871
:100B2C007C14141408081414187C7C080404084859
:100B3C0054545420043F4440203C4040207C1C2012
:100B4C0040201C3C4030403C44281028440C505061
:100B5C00503C4464544C440008364100000077007B
:100B6C0000004136080008040810083D3D3D3D3D9D
:100B7C003D3D3D3D3D3D3D3D3D3D3D3D3D3D3D00D6
:100B8C002A202020426F75626C652050204F205027
:060B9C002020202A0000C9
:00000001FF
